:100000000C9432000C94DA0A0C94030B0C94120B2F
:100010000C944F000C94720D0C944F000C944F00F4
:100020000C944F000C94A80C0C944F000C944F00AF
:100030000C944F000C944F000C944F000C944F0004
:100040000C944F000C944F000C944F000C944F00F4
:100050000C944F00140D610D1F0D350D2A0D400D30
:100060004B0D560D11241FBECFE5D8E0DEBFCDBF2E
:1000700011E0A0E6B0E0EAE2F0E202C005900D92E5
:10008000A634B107D9F721E0A6E4B1E001C01D9282
:10009000A338B207E1F70E945B070C9413100C948D
:1000A000000080916C01813079F580914901909137
:1000B0004A01A0914B01B0914C0189399105A105EC
:1000C000B105A4F48091490190914A01A0914B019E
:1000D000B0914C010196A11DB11D809349019093EF
:1000E0004A01A0934B01B0934C010895109249012D
:1000F00010924A0110924B0110924C0110926C0127
:1001000081E0809350010895823071F5809149011A
:1001100090914A01A0914B01B0914C010A97A10521
:10012000B105A4F48091490190914A01A0914B013D
:10013000B0914C010196A11DB11D8093490190938E
:100140004A01A0934B01B0934C01089510924901CC
:1001500010924A0110924B0110924C0110926C01C6
:1001600081E080934F010895833069F580914901C2
:1001700090914A01A0914B01B0914C014497A10587
:10018000B105A4F48091490190914A01A0914B01DD
:10019000B0914C010196A11DB11D8093490190932E
:1001A0004A01A0934B01B0934C010895109249016C
:1001B00010924A0110924B0110924C0110926C0166
:1001C00081E080934E01089578940E944B090E942B
:1001D00032070E94D3050E949A04089562E081E0EC
:1001E0000E9475068DE890E00E94070666E082E0B6
:1001F0000E9475068AEB90E00E94070680914D01EF
:100200008F5F80934D0108958091480181110CC04A
:1002100083E080936C010E94630D81E590E00E9471
:100220006D0D81E08093480180914E01811135C0B0
:1002300061E670E084E10E94D70380916100811142
:100240003FC08091500181113BC061E670E084E1C4
:100250000E94D7038091610081112DC080915001CF
:10026000882399F328C066E082E00E9475068BE936
:1002700090E00E94070681E080936000089581303D
:10028000F9F466E082E00E9475068AEB90E00E9435
:10029000070682E080936000089580914E018130CE
:1002A00079F410924E0180914D018F5F80934D0142
:1002B0000E94FD0C089580916000823001F7D3CF39
:1002C00008958091470181112DC00E94630D81E541
:1002D00090E00E946D0D82E080936C0181E080933C
:1002E00047010E94710660E081E00E94750681EA84
:1002F00090E00E94070660E082E00E94750680910F
:100300006000823029F48EEA90E00E94070604C063
:1003100080EC90E00E9407060E94630D81E590E06A
:100320000E946D0D80914F01813059F40E94FD0CA7
:1003300010924F0180914D018F5F80934D0110927B
:100340004701089581E080936C01809146018111FD
:100350007CC080916200813009F477C00E94630DF7
:1003600081E590E00E946D0D81E0809346010E943E
:1003700071066BC082E690E00E94A5048DE691E0D4
:100380000E9437078091500181112DC060E070E01C
:1003900080E292E40E94DF030E94830660E081E035
:1003A0000E9475068EEC90E00E94070660E082E0F5
:1003B0000E9475068FED90E00E94070669E082E0DA
:1003C0000E94750660916D0170916E0180E090E071
:1003D0000E941D066BE082E00E94750687EE90E0A9
:1003E0000E94070632C080915001813071F560E0B3
:1003F00070E080EA92E40E94DF030E94830660E0DE
:1004000081E00E9475068AEE90E00E94070660E097
:1004100082E00E9475068FED90E00E94070669E079
:1004200082E00E94750660916D0170916E0180E01E
:1004300090E00E941D066BE082E00E94750687EE48
:1004400090E00E9407060E94FD0C80916D01909142
:100450006E018734910528F080916200813009F0A7
:1004600089CF109250011092460108950E947106A2
:1004700080916D0190916E014F97889708F044C06C
:1004800080916200813009F43FC082E690E00E94D2
:10049000A50460E081E00E9475068EEC90E00E9469
:1004A000070660E082E00E9475068FED90E00E94F2
:1004B000070669E082E00E94750660916D01709107
:1004C0006E0180E090E00E941D066BE082E00E94D9
:1004D000750687EE90E00E94070660E070E080EF0E
:1004E00091E40E94DF030E9483068DE691E00E9462
:1004F000370780916D0190916E014F97889720F496
:1005000080916200813009F608950E94A5060E943C
:10051000710680916D0190916E0145970A9708F0E0
:1005200078C080916200813009F473C082E690E067
:100530000E94A50480916000823069F560E070E05F
:1005400080EF91E40E94DF0360E081E00E94750685
:100550008BEF90E00E9407060E944D0460E082E06D
:100560000E9475068FED90E00E94070669E082E028
:100570000E94750660916D0170916E0180E090E0BF
:100580000E941D066BE082E00E94750687EE90E0F7
:100590000E9407062EC0813061F560E070E080EFB8
:1005A00091E40E94DF030E94620460E081E00E9407
:1005B00075068CE091E00E94070660E082E00E94F0
:1005C00075068FED90E00E94070669E082E00E94C8
:1005D000750660916D0170916E0180E090E00E945F
:1005E0001D066BE082E00E94750687EE90E00E9497
:1005F00007068DE691E00E94370780916D0190918A
:100600006E0145970A9728F480916200813009F0C5
:100610008DCF08950E94A5060E94710660E081E0DA
:100620000E9475068DE191E00E94070660E082E07D
:100630000E9475068FED90E00E94070669E082E057
:100640000E94750660916D0170916E0180E090E0EE
:100650000E941D066BE082E00E94750687EE90E026
:100660000E9407062FEF89E698E1215080409040D4
:10067000E1F700C000000E94710680916D01909129
:100680006E01459708F042C0809162008130F1F11F
:1006900082E690E00E94A5040E94940660E070E06B
:1006A00080EF91E40E94DF0360E081E00E94750624
:1006B0008EE291E00E94070660E082E00E947506EB
:1006C0008FED90E00E94070669E082E00E947506C7
:1006D00060916D0170916E0180E090E00E941D06B6
:1006E0006BE082E00E94750687EE90E00E940706AC
:1006F0008DE691E00E94370780916D0190916E0127
:10070000459720F480916200813011F6089582E6C9
:1007100090E00E94A50480916200882331F081302E
:1007200009F044C00E94A506089580914D018111F1
:1007300003C00E94EE0032C080914D01813019F457
:100740000E9404012BC080914D01823039F50E9436
:10075000610124C08DE691E00E94370780916D0110
:1007600090916E018734910518F00E94A20116C085
:100770009C012F5131092832310518F40E943602AC
:100780000DC09C01255131092A30310518F40E9411
:10079000850204C0459710F40E940A0380914D0120
:1007A000833021F4809162008130A1F6089588326F
:1007B00020F40E94FF0880E0089581E00895CF9220
:1007C000DF92EF92FF9220E030E048EC52E40E948A
:1007D000220E60937B0170937C0180937D01909346
:1007E0007E0120E030E040E853E40E947E0F6B0180
:1007F0007C0160937F0170938001809381019093CD
:1008000082019B01AC0160E070E080E893E40E940B
:10081000990D60936F0170937001809371019093B3
:100820007201C701B6010E94620C61E08CE10E9476
:10083000620861E08DE10E94620860916F01709131
:10084000700180917101909172010E94620C60E0D0
:100850008CE10E94620860E08DE10E946208FF90D6
:10086000EF90DF90CF90089586E79BE0AFE3B0E490
:100870008093770190937801A0937901B0937A01E6
:1008800084E59EECAEE6B0E480937301909374012E
:10089000A0937501B093760108950E9434040E94DC
:1008A000B60660E070E080E291E40E94DF036091B0
:1008B00073017091740180917501909176010E948D
:1008C000200C08950E9434040E94C70660E070E086
:1008D00080E291E40E94DF036091730170917401E2
:1008E00080917501909176010E94200C089580916D
:1008F00051018F5F8093510108950E944B0A1DBCE6
:100900001CBC87E794E00E94A30C0E949F0C62E04D
:1009100080E00E947A0C08950E945D0A10925101B5
:100920008EB5887F8EBD08950E946F0A08950E943B
:10093000CB0A089540E063E482E00E94600940E051
:1009400063E483E00E94600908957F928F929F92F2
:10095000AF92BF92CF92DF92EF92FF920F931F93CD
:10096000CF93DF931F92CDB7DEB75C0119820F2EB4
:10097000F3E6CF2EF0E0DF2EF02D02E0912C88245C
:100980008394782C40E063E482E00E94600940E0B8
:1009900063E483E00E946009482D63E4802F0E9495
:1009A0006009760115E0AE014F5F5F4F63E4812F70
:1009B0000E94EB098981813059F4809152018111A3
:1009C0000AC0F7018081F50180837092520103C053
:1009D000811101C093941F5FFFEFEF1AFF0A1730D8
:1009E00011F782E0981202C0109252010F5FE2E00C
:1009F000CE0ED11C043031F60F90DF91CF911F91B4
:100A00000F91FF90EF90DF90CF90BF90AF909F90AD
:100A10008F907F900895CF93C82F60E081E00E946F
:100A2000620860E082E00E946208C4FB662760F909
:100A300084E00E946208C5FB662760F985E00E9499
:100A40006208C6FB662760F986E00E9462086C2F88
:100A5000661F6627661F87E00E94620861E083E0E8
:100A60000E94620889EF90E00197F1F700C0000052
:100A700060E083E00E94620889EF90E00197F1F75F
:100A800000C000006C2F617084E00E946208C1FB0E
:100A9000662760F985E00E946208C2FB662760F95C
:100AA00086E00E946208C3FB662760F987E00E9427
:100AB000620861E083E00E94620889EF90E001979C
:100AC000F1F700C0000060E083E00E94620889EF57
:100AD00090E00197F1F700C00000CF910895CF9307
:100AE000C82F61E081E00E94620860E082E00E941D
:100AF0006208C4FB662760F984E00E946208C5FBB7
:100B0000662760F985E00E946208C6FB662760F9E7
:100B100086E00E9462086C2F661F6627661F87E0CA
:100B20000E94620861E083E00E94620889EF90E021
:100B30000197F1F700C0000060E083E00E946208C6
:100B400089EF90E00197F1F700C000006C2F617011
:100B500084E00E946208C1FB662760F985E00E947C
:100B60006208C2FB662760F986E00E946208C3FB48
:100B7000662760F987E00E94620861E083E00E94D6
:100B8000620889EF90E00197F1F700C0000060E093
:100B900083E00E94620889EF90E00197F1F700C0BE
:100BA0000000CF91089583ED90E30197F1F700C025
:100BB000000082E00E940B0589EF90E00197F1F7B9
:100BC00000C0000088E20E940B0589EF90E00197C9
:100BD000F1F700C000008CE00E940B0589EF90E067
:100BE0000197F1F700C0000081E00E940B0583EF40
:100BF00091E00197F1F700C0000086E00E940B052C
:100C000089EF90E00197F1F700C0000008950F937D
:100C10001F93CF93FC018081882359F08F01C0E09E
:100C20000E946F05CF5FF801EC0FF11D80818111EB
:100C3000F7CFCF911F910F9108958F929F92AF920E
:100C4000BF92EF92FF921F93CF93DF93CDB7DEB7A2
:100C500060970FB6F894DEBF0FBECDBF611571056A
:100C60008105910521F480E30E946F052AC010E000
:100C70000F2EFAE08F2E912CA12CB12CF02DEE240A
:100C8000E394F12CEC0EFD1EE10EF11CA501940184
:100C90000E94EB0F605DF70160831F5F622F732F6F
:100CA000842F952F611571058105910541F7112359
:100CB00041F0FE01E10FF11D80810E946F0511508E
:100CC000C1F760960FB6F894DEBF0FBECDBFDF91BF
:100CD000CF911F91FF90EF90BF90AF909F908F901A
:100CE000089581E00E940B050895813029F480E881
:100CF000860F0E940B050895823021F480EC860F48
:100D00000E940B05089560E08AE10E94620861E09C
:100D10008BE10E94620860E08EE10E94620861E05F
:100D20008FE10E946208089561E08AE10E946208F2
:100D300060E08BE10E94620861E08EE10E9462083F
:100D400060E08FE10E946208089560E08AE10E94FD
:100D5000620860E08BE10E94620860E08EE10E9420
:100D6000620860E08FE10E946208089561E08AE114
:100D70000E94620860E08BE10E94620860E08EE100
:100D80000E94620861E08FE10E946208089560E0BD
:100D90008AE10E94620861E08BE10E94620861E0E2
:100DA0008EE10E94620860E08FE10E94620808956F
:100DB0000F931F93CF93DF9380915B01811114C038
:100DC0008CB59DB5A0E0B0E0809357019093580199
:100DD000A0935901B0935A0162E082E00E9494040A
:100DE00081E080935B0139C08130B9F58CB59DB548
:100DF000A0E0B0E08093530190935401A09355017B
:100E0000B093560182E00E948C0410925B01C09165
:100E10005C01D0915D018091530190915401A091AA
:100E20005501B09156010091570110915801209140
:100E3000590130915A01BC01CD01601B710B820B2D
:100E4000930B2AE330E040E050E00E94EB0F288350
:100E500039834A835B8310925E01DF91CF911F91AA
:100E60000F91089560E08BE00E9460070895209143
:100E70005E0121111FC090935D0180935C0168EDBC
:100E800076E082E00E94970463E082E00E9494048E
:100E900082E00E947D0461E08BE00E9462088AE1AA
:100EA0008A95F1F700C060E08BE00E94620881E063
:100EB00080935E0108950E94E4000E948703FDCFA5
:100EC000982F969596959695953008F0F9C087706D
:100ED000613031F008F4A4C0623009F451C0EFC0B1
:100EE0009130C1F028F0923039F19330B9F1E7C078
:100EF0004AB321E030E0B90102C0660F771F8A953E
:100F0000E2F7CB018095942F98239ABB9BB389235A
:100F10008BBBD5C047B321E030E0B90102C0660FFA
:100F2000771F8A95E2F7CB018095942F982397BB82
:100F300098B3892388BBC3C044B321E030E0B90132
:100F400002C0660F771F8A95E2F7CB018095942F38
:100F5000982394BB95B3892385BBB1C041B321E0ED
:100F600030E0B90102C0660F771F8A95E2F7CB0126
:100F70008095942F982391BB92B3892382BB9FC005
:100F80009130C1F028F0923039F19330B9F197C027
:100F90004AB321E030E0B90102C0660F771F8A959D
:100FA000E2F7CB01962F909594239ABB9BB3892BA4
:100FB0008BBB85C047B321E030E0B90102C0660FAA
:100FC000771F8A95E2F7CB01962F9095942397BBD4
:100FD00098B3892B88BB73C044B321E030E0B901DA
:100FE00002C0660F771F8A95E2F7CB01962F909586
:100FF000942394BB95B3892B85BB61C041B321E099
:1010000030E0B90102C0660F771F8A95E2F7CB0185
:10101000962F9095942391BB92B3892B82BB4FC09E
:101020009130C1F028F0923039F19330B9F147C0D6
:101030004BB321E030E0B90102C0660F771F8A95FB
:10104000E2F7CB01962F909594239BBB9AB3892B03
:101050008ABB35C048B321E030E0B90102C0660F59
:10106000771F8A95E2F7CB01962F9095942398BB32
:1010700097B3892B87BB23C045B321E030E0B9018A
:1010800002C0660F771F8A95E2F7CB01962F9095E5
:10109000942395BB94B3892B84BB11C042B321E048
:1010A00030E0B90102C0660F771F8A95E2F7CB01E5
:1010B000962F9095942392BB91B3892B81BB089571
:1010C00082E00895982F969596959695953008F01C
:1010D0008EC0633008F08DC08770613009F040C069
:1010E0009130A1F028F09230F9F0933059F183C09B
:1010F0004BB321E030E0B90102C0660F771F8A953B
:10110000E2F7CB01842B8BBB80E0089548B321E04C
:1011100030E0B90102C0660F771F8A95E2F7CB0174
:10112000842B88BB80E0089545B321E030E0B9010D
:1011300002C0660F771F8A95E2F7CB01842B85BB2F
:1011400080E0089542B321E030E0B90102C0660FAB
:10115000771F8A95E2F7CB01842B82BB80E008954C
:10116000611144C09130A9F028F0923009F1933018
:1011700071F143C04BB321E030E0B90102C0660F0A
:10118000771F8A95E2F7CB01809584238BBB80E0A3
:10119000089548B321E030E0B90102C0660F771F1F
:1011A0008A95E2F7CB018095842388BB80E008957F
:1011B00045B321E030E0B90102C0660F771F8A9580
:1011C000E2F7CB018095842385BB80E0089542B38C
:1011D00021E030E0B90102C0660F771F8A95E2F77F
:1011E000CB018095842382BB80E00895089582E03E
:1011F000089583E0089580E0089580E00895982F91
:10120000969596959695953008F041C087709130E7
:10121000A1F028F09230F9F0933059F13AC029B397
:1012200030E0A90102C0559547958A95E2F7CA01B9
:101230008170FB01808380E0089526B330E0A9012E
:1012400002C0559547958A95E2F7CA018170FB0166
:10125000808380E0089523B330E0A90102C0559552
:1012600047958A95E2F7CA018170FB01808380E08F
:10127000089520B330E0A90102C0559547958A959D
:10128000E2F7CA018170FB01808380E0089582E06B
:10129000089580E008950F931F93CF93DF93C7E6DF
:1012A000D0E00DE810E0698188810E9460072296F5
:1012B000C017D107C1F7DF91CF911F910F9108950A
:1012C000623459F118F4613441F00895633409F43B
:1012D00044C0643409F460C0089541110EC04BB39A
:1012E00021E030E0B90102C0660F771F8A95E2F76E
:1012F000CB01809584238BBB0895413009F06AC0EF
:101300004BB321E030E0B90102C0660F771F8A9528
:10131000E2F7CB01842B8BBB089541110EC048B37B
:1013200021E030E0B90102C0660F771F8A95E2F72D
:10133000CB018095842388BB0895413009F04AC0D1
:1013400048B321E030E0B90102C0660F771F8A95EB
:10135000E2F7CB01842B88BB089541110EC045B341
:1013600021E030E0B90102C0660F771F8A95E2F7ED
:10137000CB018095842385BB0895413059F545B351
:1013800021E030E0B90102C0660F771F8A95E2F7CD
:10139000CB01842B85BB089541110EC042B321E0DF
:1013A00030E0B90102C0660F771F8A95E2F7CB01E2
:1013B0008095842382BB0895413061F442B321E0DB
:1013C00030E0B90102C0660F771F8A95E2F7CB01C2
:1013D000842B82BB08956234F9F018F4613439F03B
:1013E0000895633471F1643409F440C0089569B319
:1013F00021E030E0082E02C0220F331F0A94E2F7EA
:1014000070E026233723B90102C0759567958A9548
:10141000E2F7FA016083089566B321E030E0082E18
:1014200002C0220F331F0A94E2F770E0262337230D
:10143000B90102C0759567958A95E2F7FA01608354
:10144000089563B321E030E0082E02C0220F331F5D
:101450000A94E2F770E026233723B90102C075959C
:1014600067958A95E2F7FA016083089560B321E0F9
:1014700030E0082E02C0220F331F0A94E2F770E01A
:1014800026233723B90102C0759567958A95E2F73F
:10149000FA0160830895813041F018F0823049F0FC
:1014A00008958BB780648BBF08958BB780688BBF1E
:1014B00008958BB780628BBF0895813041F018F09A
:1014C000823049F008958BB78F7B8BBF08958BB71F
:1014D0008F778BBF08958BB78F7D8BBF0895813039
:1014E00049F120F0823009F449C00895613069F073
:1014F00028F0623089F06330B1F0089585B78E7FAF
:1015000085BF85B78D7F85BF089585B7816085BF0D
:1015100085B78D7F85BF089585B78E7F85BF85B7D9
:10152000826085BF089585B7816085BF85B7826079
:1015300085BF0895613069F028F0623089F063302A
:10154000B1F0089585B78B7F85BF85B7877F85BF4D
:10155000089585B7846085BF85B7877F85BF089567
:1015600085B78B7F85BF85B7886085BF089585B7B0
:10157000846085BF85B7886085BF0895623019F0A3
:10158000633029F0089584B78F7B84BF089584B7B2
:10159000806484BF0895882319F0823051F405C017
:1015A0007093630160936201089570936101609389
:1015B000600108951F920F920FB60F9211242F937E
:1015C0003F934F935F936F937F938F939F93AF93CB
:1015D000BF93EF93FF93E0916201F0916301309725
:1015E00009F00995FF91EF91BF91AF919F918F9174
:1015F0007F916F915F914F913F912F910F900FBE0F
:101600000F901F9018951F920F920FB60F921124F2
:101610008F9381E080935F018F910F900FBE0F90A9
:101620001F9018951F920F920FB60F9211242F93AF
:101630003F934F935F936F937F938F939F93AF935A
:10164000BF93EF93FF93E0916001F09161013097B8
:1016500009F00995FF91EF91BF91AF919F918F9103
:101660007F916F915F914F913F912F910F900FBE9E
:101670000F901F90189580913F018130F1F028F074
:10168000823099F0843049F020C083B78F7B83BFCC
:1016900083B7877F83BF84E0089583B7806483BF67
:1016A00083B7877F83BF84E0089583B78F7B83BF31
:1016B00083B7886083BF84E0089583B7806483BF65
:1016C00083B7886083BF84E0089581E008958091A6
:1016D0004001833009F128F4882341F0823089F0F9
:1016E0003CC0863021F1873069F137C083B7816013
:1016F00083BF83B78D7F83BF83B78B7F83BF84E036
:10170000089583B7826083BF83B78E7F83BF83B71B
:101710008B7F83BF84E0089583B7816083BF83B7E5
:10172000826083BF83B78B7F83BF84E0089583B7D4
:10173000846083BF83B78D7F83BF83B78E7F83BF72
:1017400084E0089583B7816083BF83B78D7F83BFB3
:1017500083B7846083BF84E0089580E00895CF92CA
:10176000DF92EF92FF926B017C0120E030E040E8D5
:1017700053E40E941D0E882394F420E030E0A90178
:10178000C701B6010E94790F88235CF0C701B6013A
:101790000E94060E0E94940E62BF84E003C083E0A4
:1017A00001C083E0FF90EF90DF90CF9008958F927B
:1017B0009F92AF92BF92CF92DF92EF92FF924B0136
:1017C0005C0120E030E0A9010E94790F1816ECF4CA
:1017D000C12CD12C760108B600FEFDCF88B7816000
:1017E00088BF20E030E040E85FE3C701B6010E9417
:1017F0009A0D6B017C019B01AC01C501B4010E94F3
:10180000790F181644F384E012C020E030E0A901FB
:10181000C501B4010E941D0E181644F008B600FE62
:10182000FDCF88B7816088BF84E001C082E0FF906F
:10183000EF90DF90CF90BF90AF909F908F900895E2
:1018400020E030E04AE754E40E94220E209140015B
:10185000222319F0273091F021C02DEB37E346E029
:1018600058E30E94220E0E94060E60936801709356
:10187000690180936A0190936B0110C02DEB37E3EF
:1018800046E05DE30E94220E0E94060E609368010E
:101890007093690180936A0190936B010E943B0BE6
:1018A00060E070E0CB010E94AF0B0E94670B60917B
:1018B00068017091690180916A0190916B010E94A9
:1018C000D70B0895CF930E94060E0E94940EC62F48
:1018D0000E943B0BC2BF0E94670B60E070E080E893
:1018E0009FE30E94D70B13BE12BE88B7816088BFEA
:1018F000CF910895882319F0833071F019C08FB506
:101900008E7F8FBD8FB58D7F8FBD8EB5877F8EBD4E
:101910008EB58F7E8EBD0CC08FB581608FBD8FB5AB
:1019200082608FBD8EB588608EBD8EB580618EBDA4
:101930008EB5887F8EBD8EB5682B6EBD089589B734
:10194000846089BF0895909367018093660108952C
:101950001F920F920FB60F9211242F933F934F9324
:101960005F936F937F938F939F93AF93BF93EF9307
:10197000FF93E0916601F0916701309709F00995B6
:10198000FF91EF91BF91AF919F918F917F916F9157
:101990005F914F913F912F910F900FBE0F901F902D
:1019A0001895809143018130F1F028F0823099F050
:1019B000843049F020C085B58F7B85BD85B5877F94
:1019C00085BD84E0089585B5806485BD85B5877F34
:1019D00085BD84E0089585B58F7B85BD85B588601C
:1019E00085BD84E0089585B5806485BD85B5886032
:1019F00085BD84E0089581E0089585B58E7F85BD1D
:101A000085B58D7F85BD85B58B7F85BD0895E091BA
:101A100044018E2F90E08830910508F052C0FC01FF
:101A2000E65DFF4F0C940D1085B5816085BD85B5D1
:101A30008D7F85BD85B58B7F85BD84E0089585B597
:101A4000826085BD85B58E7F85BD85B58B7F85BD63
:101A500084E0089585B5816085BD85B5826085BDCA
:101A600085B58B7F85BD84E0089585B5846085BD8F
:101A700085B58D7F85BD85B58E7F85BD84E0089554
:101A800085B5816085BD85B58D7F85BD85B5846053
:101A900085BD84E0089585B5846085BD85B58E7F5C
:101AA00085BD85B5826085BD84E0089585B581607A
:101AB00085BD85B5826085BD85B5846085BD84E0C2
:101AC000089580E00895789489B7806489BF0E9462
:101AD000D10C14BC0E94070D08959093650180936A
:101AE000640108951F920F920FB60F9211242F9345
:101AF0003F934F935F936F937F938F939F93AF9396
:101B0000BF93EF93FF93E0916401F0916501099514
:101B1000FF91EF91BF91AF919F918F917F916F91C5
:101B20005F914F913F912F910F900FBE0F901F909B
:101B300018955058BB27AA270E94B10D0C94270F67
:101B40000E94190F38F00E94200F20F039F49F3FB7
:101B500019F426F40C94160F0EF4E095E7FB0C94A0
:101B6000E70EE92F0E94380F58F3BA176207730780
:101B70008407950720F079F4A6F50C94720F0EF403
:101B8000E0950B2EBA2FA02D0B01B90190010C018D
:101B9000CA01A0011124FF27591B99F0593F50F4A5
:101BA000503E68F11A16F040A22F232F342F4427FD
:101BB000585FF3CF469537952795A795F0405395F5
:101BC000C9F77EF41F16BA0B620B730B840BBAF0C5
:101BD0009150A1F0FF0FBB1F661F771F881FC2F730
:101BE0000EC0BA0F621F731F841F48F48795779544
:101BF0006795B795F7959E3F08F0B0CF9395880FFE
:101C000008F09927EE0F9795879508950E945A0F2F
:101C100090F09F3748F4911116F40C94730F60E024
:101C200070E080E89FE3089526F01B16611D711D8A
:101C3000811D0C94ED0E0C94080F0E94C30E08F445
:101C400081E008950E94360E0C94270F0E94200F09
:101C500058F00E94190F40F029F45F3F29F00C94CE
:101C6000E70E51110C94730F0C94160F0E94380F4D
:101C700068F39923B1F3552391F3951B550BBB27BB
:101C8000AA2762177307840738F09F5F5F4F220F00
:101C9000331F441FAA1FA9F335D00E2E3AF0E0E8F7
:101CA00032D091505040E695001CCAF72BD0FE2F41
:101CB00029D0660F771F881FBB1F261737074807D5
:101CC000AB07B0E809F0BB0B802DBF01FF2793588D
:101CD0005F4F3AF09E3F510578F00C94E70E0C945C
:101CE000730F5F3FE4F3983ED4F38695779567953D
:101CF000B795F7959F5FC9F7880F911D96958795C2
:101D000097F90895E1E0660F771F881FBB1F6217E0
:101D100073078407BA0720F0621B730B840BBA0B9E
:101D2000EE1F88F7E09508950E94400F88F09F57B6
:101D300098F0B92F9927B751B0F0E1F0660F771FEF
:101D4000881F991F1AF0BA95C9F714C0B13091F0E5
:101D50000E94720FB1E008950C94720F672F782FD4
:101D60008827B85F39F0B93FCCF3869577956795AA
:101D7000B395D9F73EF490958095709561957F4F16
:101D80008F4F9F4F0895990F0008550FAA0BE0E859
:101D9000FEEF16161706E807F907C0F0121613062D
:101DA000E407F50798F0621B730B840B950B39F46D
:101DB0000A2661F0232B242B252B21F408950A26D3
:101DC00009F4A140A6958FEF811D811D089597F913
:101DD0009F6780E870E060E00895882371F47723BE
:101DE00021F09850872B762F07C0662311F499278E
:101DF0000DC09051862B70E060E02AF09A95660F36
:101E0000771F881FDAF7880F9695879597F90895B9
:101E10009F3F31F0915020F4879577956795B7955E
:101E2000880F911D9695879597F908959FEF80ECFF
:101E3000089500240A941616170618060906089530
:101E400000240A9412161306140605060895092E96
:101E50000394000C11F4882352F0BB0F40F4BF2B05
:101E600011F460FF04C06F5F7F4F8F4F9F4F089545
:101E700057FD9058440F551F59F05F3F71F047953B
:101E8000880F97FB991F61F09F3F79F08795089520
:101E9000121613061406551FF2CF4695F1DF08C03F
:101EA000161617061806991FF1CF8695710561055C
:101EB000089408950E94400FA0F0BEE7B91788F477
:101EC000BB279F3860F41616B11D672F782F88271F
:101ED000985FF7CF869577956795B11D939596395D
:101EE000C8F30895E894BB2766277727CB0197F9B5
:101EF00008950E94C30E08F48FEF08950E94910F79
:101F00000C94270F0E94190F38F00E94200F20F028
:101F1000952311F00C94E70E0C94160F11240C94D9
:101F2000730F0E94380F70F3959FC1F3950F50E027
:101F3000551F629FF001729FBB27F00DB11D639F7B
:101F4000AA27F00DB11DAA1F649F6627B00DA11D21
:101F5000661F829F2227B00DA11D621F739FB00DC7
:101F6000A11D621F839FA00D611D221F749F332737
:101F7000A00D611D231F849F600D211D822F762FD0
:101F80006A2F11249F5750409AF0F1F088234AF0AD
:101F9000EE0FFF1FBB1F661F771F881F9150504019
:101FA000A9F79E3F510580F00C94E70E0C94730F37
:101FB0005F3FE4F3983ED4F3869577956795B795A0
:101FC000F795E7959F5FC1F7FE2B880F911D9695BA
:101FD000879597F90895A1E21A2EAA1BBB1BFD0154
:101FE0000DC0AA1FBB1FEE1FFF1FA217B307E407F8
:101FF000F50720F0A21BB30BE40BF50B661F771F50
:10200000881F991F1A9469F760957095809590952F
:102010009B01AC01BD01CF010895EE0FFF1F05909C
:0A202000F491E02D0994F894FFCF2D
:10202A00020102000102030100020003000400058C
:10203A000006000700150116011200130014021A07
:10204A00001B001E001F001C001D000000536574C9
:10205A0020526F746174696F6E3A004C6566742021
:10206A0000205468652044656661756C7400526F7F
:10207A00746174696F6E20497320526967687400CD
:10208A00526F746174696F6E204C65667400537088
:10209A006565643A333025204469723A2046004423
:1020AA006973742E3A2000636D0053706565643A53
:1020BA00353025204469723A2046005370656564BC
:1020CA003A333025204469723A20520053706565CC
:1020DA00643A333025204469723A204C00537065C3
:1020EA0065643A333025204469723A2053005370AC
:1020FA006565643A333025204469723A204200000B
:06210A00070000000700C1
:00000001FF
